{
  "_format": "hh-sol-artifact-1",
  "contractName": "DegenToken",
  "sourceName": "contracts/Degen.sol",
  "abi": [
    {
      "inputs": [],
      "stateMutability": "nonpayable",
      "type": "constructor"
    },
    {
      "inputs": [
        {
          "internalType": "address",
          "name": "",
          "type": "address"
        }
      ],
      "name": "balanceOf",
      "outputs": [
        {
          "internalType": "uint256",
          "name": "",
          "type": "uint256"
        }
      ],
      "stateMutability": "view",
      "type": "function"
    },
    {
      "inputs": [
        {
          "internalType": "uint256",
          "name": "_value",
          "type": "uint256"
        }
      ],
      "name": "burn",
      "outputs": [
        {
          "internalType": "bool",
          "name": "success",
          "type": "bool"
        }
      ],
      "stateMutability": "nonpayable",
      "type": "function"
    },
    {
      "inputs": [
        {
          "internalType": "address",
          "name": "_address",
          "type": "address"
        }
      ],
      "name": "checkBalance",
      "outputs": [
        {
          "internalType": "uint256",
          "name": "",
          "type": "uint256"
        }
      ],
      "stateMutability": "view",
      "type": "function"
    },
    {
      "inputs": [],
      "name": "decimals",
      "outputs": [
        {
          "internalType": "uint8",
          "name": "",
          "type": "uint8"
        }
      ],
      "stateMutability": "view",
      "type": "function"
    },
    {
      "inputs": [
        {
          "internalType": "uint256",
          "name": "_value",
          "type": "uint256"
        }
      ],
      "name": "mint",
      "outputs": [
        {
          "internalType": "bool",
          "name": "success",
          "type": "bool"
        }
      ],
      "stateMutability": "nonpayable",
      "type": "function"
    },
    {
      "inputs": [],
      "name": "name",
      "outputs": [
        {
          "internalType": "string",
          "name": "",
          "type": "string"
        }
      ],
      "stateMutability": "view",
      "type": "function"
    },
    {
      "inputs": [],
      "name": "owner",
      "outputs": [
        {
          "internalType": "address",
          "name": "",
          "type": "address"
        }
      ],
      "stateMutability": "view",
      "type": "function"
    },
    {
      "inputs": [
        {
          "internalType": "uint256",
          "name": "_cost",
          "type": "uint256"
        }
      ],
      "name": "redeem",
      "outputs": [],
      "stateMutability": "nonpayable",
      "type": "function"
    },
    {
      "inputs": [
        {
          "internalType": "address",
          "name": "",
          "type": "address"
        }
      ],
      "name": "reward",
      "outputs": [
        {
          "internalType": "uint256",
          "name": "",
          "type": "uint256"
        }
      ],
      "stateMutability": "view",
      "type": "function"
    },
    {
      "inputs": [],
      "name": "rewardReceived",
      "outputs": [
        {
          "internalType": "bool",
          "name": "",
          "type": "bool"
        }
      ],
      "stateMutability": "view",
      "type": "function"
    },
    {
      "inputs": [],
      "name": "symbol",
      "outputs": [
        {
          "internalType": "string",
          "name": "",
          "type": "string"
        }
      ],
      "stateMutability": "view",
      "type": "function"
    },
    {
      "inputs": [],
      "name": "totalSupply",
      "outputs": [
        {
          "internalType": "uint256",
          "name": "",
          "type": "uint256"
        }
      ],
      "stateMutability": "view",
      "type": "function"
    },
    {
      "inputs": [
        {
          "internalType": "address",
          "name": "_to",
          "type": "address"
        },
        {
          "internalType": "uint256",
          "name": "_value",
          "type": "uint256"
        }
      ],
      "name": "transfer",
      "outputs": [
        {
          "internalType": "bool",
          "name": "success",
          "type": "bool"
        }
      ],
      "stateMutability": "nonpayable",
      "type": "function"
    }
  ],
  "bytecode": "0x60806040523480156200001157600080fd5b50336000806101000a81548173ffffffffffffffffffffffffffffffffffffffff021916908373ffffffffffffffffffffffffffffffffffffffff1602179055506040518060400160405280600581526020017f446567656e000000000000000000000000000000000000000000000000000000815250600190816200009891906200037c565b506040518060400160405280600381526020017f44474e000000000000000000000000000000000000000000000000000000000081525060029081620000df91906200037c565b506012600360006101000a81548160ff021916908360ff16021790555062000463565b600081519050919050565b7f4e487b7100000000000000000000000000000000000000000000000000000000600052604160045260246000fd5b7f4e487b7100000000000000000000000000000000000000000000000000000000600052602260045260246000fd5b600060028204905060018216806200018457607f821691505b6020821081036200019a57620001996200013c565b5b50919050565b60008190508160005260206000209050919050565b60006020601f8301049050919050565b600082821b905092915050565b600060088302620002047fffffffffffffffffffffffffffffffffffffffffffffffffffffffffffffffff82620001c5565b620002108683620001c5565b95508019841693508086168417925050509392505050565b6000819050919050565b6000819050919050565b60006200025d62000257620002518462000228565b62000232565b62000228565b9050919050565b6000819050919050565b62000279836200023c565b62000291620002888262000264565b848454620001d2565b825550505050565b600090565b620002a862000299565b620002b58184846200026e565b505050565b5b81811015620002dd57620002d16000826200029e565b600181019050620002bb565b5050565b601f8211156200032c57620002f681620001a0565b6200030184620001b5565b8101602085101562000311578190505b620003296200032085620001b5565b830182620002ba565b50505b505050565b600082821c905092915050565b6000620003516000198460080262000331565b1980831691505092915050565b60006200036c83836200033e565b9150826002028217905092915050565b620003878262000102565b67ffffffffffffffff811115620003a357620003a26200010d565b5b620003af82546200016b565b620003bc828285620002e1565b600060209050601f831160018114620003f45760008415620003df578287015190505b620003eb85826200035e565b8655506200045b565b601f1984166200040486620001a0565b60005b828110156200042e5784890151825560018201915060208501945060208101905062000407565b868310156200044e57848901516200044a601f8916826200033e565b8355505b6001600288020188555050505b505050505050565b61104380620004736000396000f3fe608060405234801561001057600080fd5b50600436106100cf5760003560e01c806370a082311161008c578063a0712d6811610066578063a0712d681461022a578063a9059cbb1461025a578063aed5be171461028a578063db006a75146102a8576100cf565b806370a08231146101be5780638da5cb5b146101ee57806395d89b411461020c576100cf565b806306fdde03146100d457806318160ddd146100f2578063313ce5671461011057806342966c681461012e5780635f5152261461015e5780636353586b1461018e575b600080fd5b6100dc6102c4565b6040516100e99190610abe565b60405180910390f35b6100fa610352565b6040516101079190610af9565b60405180910390f35b610118610358565b6040516101259190610b30565b60405180910390f35b61014860048036038101906101439190610b7c565b61036b565b6040516101559190610bc4565b60405180910390f35b61017860048036038101906101739190610c3d565b6104aa565b6040516101859190610af9565b60405180910390f35b6101a860048036038101906101a39190610c3d565b6104f3565b6040516101b59190610af9565b60405180910390f35b6101d860048036038101906101d39190610c3d565b61050b565b6040516101e59190610af9565b60405180910390f35b6101f6610523565b6040516102039190610c79565b60405180910390f35b610214610547565b6040516102219190610abe565b60405180910390f35b610244600480360381019061023f9190610b7c565b6105d5565b6040516102519190610bc4565b60405180910390f35b610274600480360381019061026f9190610c94565b610721565b6040516102819190610bc4565b60405180910390f35b61029261089e565b60405161029f9190610bc4565b60405180910390f35b6102c260048036038101906102bd9190610b7c565b6108b1565b005b600180546102d190610d03565b80601f01602080910402602001604051908101604052809291908181526020018280546102fd90610d03565b801561034a5780601f1061031f5761010080835404028352916020019161034a565b820191906000526020600020905b81548152906001019060200180831161032d57829003601f168201915b505050505081565b60045481565b600360009054906101000a900460ff1681565b600081600660003373ffffffffffffffffffffffffffffffffffffffff1673ffffffffffffffffffffffffffffffffffffffff1681526020019081526020016000205410156103ef576040517f08c379a00000000000000000000000000000000000000000000000000000000081526004016103e690610d80565b60405180910390fd5b60008211610432576040517f08c379a000000000000000000000000000000000000000000000000000000000815260040161042990610dec565b60405180910390fd5b81600660003373ffffffffffffffffffffffffffffffffffffffff1673ffffffffffffffffffffffffffffffffffffffff16815260200190815260200160002060008282546104819190610e3b565b92505081905550816004600082825461049a9190610e3b565b9250508190555060019050919050565b6000600660008373ffffffffffffffffffffffffffffffffffffffff1673ffffffffffffffffffffffffffffffffffffffff168152602001908152602001600020549050919050565b60056020528060005260406000206000915090505481565b60066020528060005260406000206000915090505481565b60008054906101000a900473ffffffffffffffffffffffffffffffffffffffff1681565b6002805461055490610d03565b80601f016020809104026020016040519081016040528092919081815260200182805461058090610d03565b80156105cd5780601f106105a2576101008083540402835291602001916105cd565b820191906000526020600020905b8154815290600101906020018083116105b057829003601f168201915b505050505081565b60008060009054906101000a900473ffffffffffffffffffffffffffffffffffffffff1673ffffffffffffffffffffffffffffffffffffffff163373ffffffffffffffffffffffffffffffffffffffff1614610666576040517f08c379a000000000000000000000000000000000000000000000000000000000815260040161065d90610ee1565b60405180910390fd5b600082116106a9576040517f08c379a00000000000000000000000000000000000000000000000000000000081526004016106a090610dec565b60405180910390fd5b81600660003373ffffffffffffffffffffffffffffffffffffffff1673ffffffffffffffffffffffffffffffffffffffff16815260200190815260200160002060008282546106f89190610f01565b9250508190555081600460008282546107119190610f01565b9250508190555060019050919050565b600081600660003373ffffffffffffffffffffffffffffffffffffffff1673ffffffffffffffffffffffffffffffffffffffff1681526020019081526020016000205410156107a5576040517f08c379a000000000000000000000000000000000000000000000000000000000815260040161079c90610f81565b60405180910390fd5b600082116107e8576040517f08c379a00000000000000000000000000000000000000000000000000000000081526004016107df90610fed565b60405180910390fd5b81600660003373ffffffffffffffffffffffffffffffffffffffff1673ffffffffffffffffffffffffffffffffffffffff16815260200190815260200160002060008282546108379190610e3b565b9250508190555081600660008573ffffffffffffffffffffffffffffffffffffffff1673ffffffffffffffffffffffffffffffffffffffff168152602001908152602001600020600082825461088d9190610f01565b925050819055506001905092915050565b600760009054906101000a900460ff1681565b80600660003373ffffffffffffffffffffffffffffffffffffffff1673ffffffffffffffffffffffffffffffffffffffff168152602001908152602001600020541015610933576040517f08c379a000000000000000000000000000000000000000000000000000000000815260040161092a90610f81565b60405180910390fd5b60008111610976576040517f08c379a000000000000000000000000000000000000000000000000000000000815260040161096d90610fed565b60405180910390fd5b80600660003373ffffffffffffffffffffffffffffffffffffffff1673ffffffffffffffffffffffffffffffffffffffff16815260200190815260200160002060008282546109c59190610e3b565b9250508190555080600560003373ffffffffffffffffffffffffffffffffffffffff1673ffffffffffffffffffffffffffffffffffffffff168152602001908152602001600020819055506001600760006101000a81548160ff02191690831515021790555050565b600081519050919050565b600082825260208201905092915050565b60005b83811015610a68578082015181840152602081019050610a4d565b60008484015250505050565b6000601f19601f8301169050919050565b6000610a9082610a2e565b610a9a8185610a39565b9350610aaa818560208601610a4a565b610ab381610a74565b840191505092915050565b60006020820190508181036000830152610ad88184610a85565b905092915050565b6000819050919050565b610af381610ae0565b82525050565b6000602082019050610b0e6000830184610aea565b92915050565b600060ff82169050919050565b610b2a81610b14565b82525050565b6000602082019050610b456000830184610b21565b92915050565b600080fd5b610b5981610ae0565b8114610b6457600080fd5b50565b600081359050610b7681610b50565b92915050565b600060208284031215610b9257610b91610b4b565b5b6000610ba084828501610b67565b91505092915050565b60008115159050919050565b610bbe81610ba9565b82525050565b6000602082019050610bd96000830184610bb5565b92915050565b600073ffffffffffffffffffffffffffffffffffffffff82169050919050565b6000610c0a82610bdf565b9050919050565b610c1a81610bff565b8114610c2557600080fd5b50565b600081359050610c3781610c11565b92915050565b600060208284031215610c5357610c52610b4b565b5b6000610c6184828501610c28565b91505092915050565b610c7381610bff565b82525050565b6000602082019050610c8e6000830184610c6a565b92915050565b60008060408385031215610cab57610caa610b4b565b5b6000610cb985828601610c28565b9250506020610cca85828601610b67565b9150509250929050565b7f4e487b7100000000000000000000000000000000000000000000000000000000600052602260045260246000fd5b60006002820490506001821680610d1b57607f821691505b602082108103610d2e57610d2d610cd4565b5b50919050565b7f496e73756666696369656e742066756e64730000000000000000000000000000600082015250565b6000610d6a601283610a39565b9150610d7582610d34565b602082019050919050565b60006020820190508181036000830152610d9981610d5d565b9050919050565b7f496e76616c69642076616c756500000000000000000000000000000000000000600082015250565b6000610dd6600d83610a39565b9150610de182610da0565b602082019050919050565b60006020820190508181036000830152610e0581610dc9565b9050919050565b7f4e487b7100000000000000000000000000000000000000000000000000000000600052601160045260246000fd5b6000610e4682610ae0565b9150610e5183610ae0565b9250828203905081811115610e6957610e68610e0c565b5b92915050565b7f4f6e6c79206f776e65722063616e2063616c6c20746869732066756e6374696f60008201527f6e2e000000000000000000000000000000000000000000000000000000000000602082015250565b6000610ecb602283610a39565b9150610ed682610e6f565b604082019050919050565b60006020820190508181036000830152610efa81610ebe565b9050919050565b6000610f0c82610ae0565b9150610f1783610ae0565b9250828201905080821115610f2f57610f2e610e0c565b5b92915050565b7f6c6f772062616c616e6365000000000000000000000000000000000000000000600082015250565b6000610f6b600b83610a39565b9150610f7682610f35565b602082019050919050565b60006020820190508181036000830152610f9a81610f5e565b9050919050565b7f6261642076616c75650000000000000000000000000000000000000000000000600082015250565b6000610fd7600983610a39565b9150610fe282610fa1565b602082019050919050565b6000602082019050818103600083015261100681610fca565b905091905056fea2646970667358221220fc205768a54ac080f7dc6116e716d18c2fce2639d44c845dac373e6b21bcd78564736f6c63430008140033",
  "linkReferences": {},
  "deployedLinkReferences": {}
}